:020000040800F2
:10000000600C0020450100083D0B00083F0B000874
:10001000430B0008470B00084B0B000800000000D2
:100020000000000000000000000000004F0B00086E
:10003000510B000800000000530B0008550B00088E
:100040005F0100085F0100085F0100085F01000810
:100050005F0100085F0100085F0100085F01000800
:100060005F0100085F0100085F0100085F010008F0
:100070005F0100085F0100085F0100085F010008E0
:100080005F0100085F0100085F0100085F010008D0
:100090005F0100085F0100085F0100085F010008C0
:1000A0005F0100085F0100085F0100085F010008B0
:1000B0005F0100085F0100085F0100085F010008A0
:1000C0005F0100085F0100085F0100085F01000890
:1000D0005F010008610B00085F0100085F01000874
:1000E0005F0100085F0100085F0100085F01000870
:1000F0005F0100085F0100085F0100085F01000860
:100100005F0100085F0100085F0100085F0100084F
:100110005F0100085F0100085F0100085F0100083F
:100120005F0100085F0100085F0100085F0100082F
:10013000DFF80CD003F0C2FD00480047250B000893
:10014000600C00200648804706480047FEE7FEE7AF
:10015000FEE7FEE7FEE7FEE7FEE7FEE7FEE7FEE777
:1001600047020008310100080CB500200190009002
:100170006C48006840F480306A49086000BF6948F4
:10018000006800F4003000900198401C0190009835
:1001900018B90198B0F5A06FF1D16248006800F479
:1001A000003010B10120009001E000200090009884
:1001B000012843D15C48006840F010005A490860AB
:1001C0000846006820F0030008600846006840F018
:1001D0000200086053484068524948600846406839
:1001E00048600846406840F48060486008464068BF
:1001F00020F47C1048600846406840F4E8104860ED
:100200000846006840F08070086000BF45480068FC
:1002100000F000700028F9D04248406820F0030048
:10022000404948600846406840F00200486000BF0E
:100230003C48406800F00C000828F9D10CBD10B50E
:10024000FFF792FF10BD10B53648006840F001007E
:1002500034490860084640683449084031494860DC
:1002600008460068324908402E4908600846006880
:1002700020F4802008600846406820F4FE004860B2
:100280004FF41F008860FFF7DAFF4FF00060294944
:10029000086010BD10B5002100200022214B5B68D2
:1002A00003F00C0121B1042906D0082928D107E068
:1002B000214B224C236027E01F4B204C236023E07E
:1002C000184B5B6803F47010164B5B6803F48032C4
:1002D000022303EB904022B9194B4343174C236090
:1002E0000DE0104B5B6803F4003323B1144B434320
:1002F000124C236003E0104B4343104C236003E097
:100300000D4B0E4C236000BF00BF064B5B68C3F370
:1003100003130C4CE15C094B1B68CB40074C23607A
:1003200010BD000000100240002002400000FFF855
:10033000FFFFF6FE08ED00E000127A00000000204A
:1003400000093D000400002031490143314A116099
:10035000704770B5002100230F22C47804B32D4CE0
:10036000246804F4E064C4F5E064210AC1F10403E4
:10037000CA40447804FA03F1847814402143090107
:10038000254C0678A155047804F01F050124AC40E3
:1003900005786D11AD0005F1E025C5F8004109E0D3
:1003A000047804F01F050124AC401C4D067876113A
:1003B00045F8264070BD1A4A0A400243154B1B1FE0
:1003C0001A60704739B1134A121D12680243114B6B
:1003D0001B1D1A6006E00F4A121D126882430D4B66
:1003E0001B1D1A607047042808D14FF0E0210969ED
:1003F00041F004014FF0E022116107E04FF0E021ED
:10040000096921F004014FF0E022116170470000FA
:100410000000FA050CED00E000E400E080E100E0FF
:1004200080FFFF1F10B50446CC48844208D101214B
:10043000042000F02DFB0021042000F029FB46E001
:10044000C748844208D10121082000F021FB002187
:10045000082000F01DFB3AE0C248844208D1012187
:10046000102000F015FB0021102000F011FB2EE001
:10047000BD48844208D10121202000F009FB002161
:10048000202000F005FB22E0B848844208D1012179
:10049000402000F0FDFA0021402000F0F9FA16E0BB
:1004A000B348844208D10121802000F0F1FA0021F4
:1004B000802000F0EDFA0AE0AE48844207D1012125
:1004C000801500F0E5FA0021A01500F0E1FA10BD5A
:1004D00010B50121084600F0DBFA0021012000F0F0
:1004E000D7FA10BD2DE9F041024600250026002074
:1004F00000230024002791F803C00CF00F0591F8A9
:1005000003C00CF0100CBCF1000F03D091F802C036
:100510004CEA050591F800C0BCF1000F31D0146819
:1005200000202BE04FF0010C0CFA00F3B1F800C0F2
:100530000CEA03069E4220D183004FF00F0C0CFA08
:1005400003F7BC4305FA03FC4CEA040491F803C02A
:10055000BCF1280F06D14FF0010C0CFA00FCC2F8D8
:1005600014C00AE091F803C0BCF1480F05D14FF068
:10057000010C0CFA00FCC2F810C0401C0828D1D3B2
:100580001460B1F800C0BCF1FF0F34DD54680020E6
:100590002EE000F1080C4FF0010808FA0CF3B1F856
:1005A00000C00CEA03069E4221D183004FF00F0CDD
:1005B0000CFA03F7BC4305FA03FC4CEA040491F877
:1005C00003C0BCF1280F05D100F1080C08FA0CF8A3
:1005D000C2F8148091F803C0BCF1480F07D100F1B4
:1005E000080C4FF0010808FA0CF8C2F81080401C03
:1005F0000828CED35460BDE8F0814FF6FF7101802A
:10060000022181700421C170704702460020936866
:100610000B400BB1012000E00020704701468868C4
:1006200080B2704702460020D3680B400BB1012016
:1006300000E0002070470146C86880B27047016141
:100640007047416170470AB1016100E04161704744
:10065000C16070474FF480320A43826181618261D8
:1006600082698269704702460020434B18684FF642
:100670008073184040EA021008433F4B18607047EF
:100680003E49C8617047F0B50A46002300240021A6
:10069000002500F00046B6F1004F02D1364EF16958
:1006A00001E0354E7168C0F3034583B200F4401693
:1006B000B6F5401F08D121F070612F4E766826F004
:1006C00070662D4F7E6012E000F48016B6F5801F34
:1006D00006D1032606FA05F4A14341F0706106E055
:1006E000460D360103FA06F6B14341F0706122B1BE
:1006F000460D360103FA06F6314300F00046B6F126
:10070000004F02D11C4EF16101E01B4E7160F0BD43
:1007100030B500228B071C0F0F2303FA04F2164B8F
:1007200008338C1053F824309343134C08348D1045
:1007300044F8253023468C1053F824308C07240FBE
:1007400000FA04F423430C4C08348D1044F825308F
:1007500030BD0A49DC3108607047000000080140E4
:10076000000C01400010014000140140001801403D
:10077000001C014000200140000001400000204218
:10078000DF48006840F00100DD4908600846406825
:10079000DC490840DA49486008460068DA49084000
:1007A000D74908600846006820F4802008600846A1
:1007B000406820F4FE0048604FF41F0088607047D6
:1007C000CF49096821F48031CD4A1160114609688A
:1007D00021F480211160B0F5803F03D0B0F5802F67
:1007E0000ED106E0C649096841F48031C44A11605F
:1007F00007E0C349096841F4A021C14A116000E043
:1008000000BF00BF704710B5014600220023002042
:100810004A11012A02D1BA4C236806E0022A02D109
:10082000B74C236A01E0B64C636A01F01F02012451
:1008300094401C400CB1012000E0002010BD38B5F0
:10084000002000900024002500BF3120FFF7DBFFCF
:1008500005460098401C00900098B0F5A06F01D0AC
:10086000002DF2D03120FFF7CEFF08B1012400E0C7
:100870000024204638BD01460020A14A106820F01F
:10088000F80040EAC10010607047A0490860704756
:10089000024600209A4B586820F47C1042EA01037B
:1008A0001843974B5860704798490866704701464F
:1008B0000020934A506820F00300084350607047BE
:1008C0008F48406800F00C007047014600208C4AB9
:1008D000506820F0F0000843506070470146002047
:1008E000874A506820F4E060084350607047014632
:1008F0000020834A506820F4605040EAC1005060F4
:10090000704729B17E4A527A02437D4B5A7204E005
:100910007B4A527A82437A4B5A7270477B49D8316C
:100920000860704701460020754A506820F4404036
:100930000843506070470021714A20321170704A9C
:1009400082F82010012802D004280AD104E00121F5
:100950006B4A2032117005E00521694A203211707E
:1009600000E000BF00BF70476949086070476449F4
:10097000096A0143624A1162704765494439086057
:10098000704730B500210022002400235C4D6D68C3
:1009900005F00C0121B1042905D0082923D105E077
:1009A0005C4D056022E05B4D05601FE0544D6D68B5
:1009B00005F47012524D6D6805F48034022505EB84
:1009C00092421CB9544D554305600BE04C4D6D6887
:1009D00005F400351DB1504D5543056002E04D4D05
:1009E0005543056002E04B4D056000BF00BF444D1C
:1009F0006D6805F0F0010909484D6B5C0568DD4044
:100A000045603F4D6D6805F4E061090A434D6B5C3C
:100A10004568DD4085603A4D6D6805F46051C90A4E
:100A20003E4D6B5C4568DD40C560354D6D6805F435
:100A30004041890B3A4D6B5CC568B5FBF3F5056128
:100A400030BD29B12E4A526902432D4B5A6104E050
:100A50002B4A526982432A4B5A61704729B1284A6E
:100A600092690243264B9A6104E0254A92698243C7
:100A7000234B9A61704729B1214AD2690243204B26
:100A8000DA6104E01E4AD26982431D4BDA61704785
:100A900029B11B4AD2680243194BDA6004E0184AB4
:100AA000D2688243164BDA60704729B1144A126942
:100AB0000243134B1A6104E0114A12698243104B3E
:100AC0001A61704712494039086070470F49C8647D
:100AD00070470B49C87170470948406A40F0807000
:100AE00007494862704701460020054A92680A405B
:100AF0000AB1012000E00020704701498872704768
:100B0000001002400000FFF8FFFFF6FE0000424226
:100B10008004424200127A0000093D0014000020C7
:100B2000240000204FF4A060FFF70EFC00F01AF83C
:100B300001F094FA01E002F00DF9FCE7704700BF04
:100B4000FEE700BFFEE700BFFEE700BFFEE770471D
:100B50007047704710B500F054F800F073F810BDFE
:100B60007047000070B56FF00400FFF73CFC2948A7
:100B700000684FF47A72B0FBF2F1B1F1807F01D3DB
:100B800001201DE021F07F40401E4FF0E022506127
:100B900050170F22002807DA13071D0E1E4B00F016
:100BA0000F04241F1D5503E013071C0E1B4B1C5480
:100BB00000BF00204FF0E02290610720106100206C
:100BC00008B100BFFEE74FF0E020006940F00100EF
:100BD0004FF0E021086170BD1149086000BF104965
:100BE00009680029FBD1704700B50246002305E0E3
:100BF0004FF47A70FFF7F0FF581CC3B29342F7D35B
:100C000000BD0748006820B105480068401E04493F
:100C1000086070470000002018ED00E000E400E0EC
:100C20002800002010B500F01DF800F0DBF810BD22
:100C300010B5094800F099F810BD10B5074800F04C
:100C400094F810BD0648006820B105480068401EB1
:100C50000349086070470000600000206004002025
:100C60002C00002008B501210820FFF7F7FEC02066
:100C7000ADF8000003208DF8020010208DF803006D
:100C800069468F48FFF72EFC08BD10B540218C48FF
:100C9000FFF7D5FC80218A48FFF7D1FC80218848E6
:100CA000FFF7CFFC40218648FFF7CBFC10BD10B505
:100CB00040218348FFF7C5FC80218148FFF7C1FC34
:100CC00080217F48FFF7BBFC40217D48FFF7B7FC40
:100CD00010BD2DE9F04105462C46002619E02746B7
:100CE00040217748FFF7ADFC07F08007802F04D143
:100CF00080217348FFF7A3FC03E080217048FFF7D1
:100D0000A0FC6006040E40216D48FFF798FC701CA3
:100D1000C6B2082EE3DB40216948FFF792FC402170
:100D20006748FFF78CFCBDE8F08110B50446FFF77B
:100D3000ACFF7820FFF7CDFF0020FFF7CAFF204669
:100D4000FFF7C7FFFFF7B3FF10BD10B50446FFF76D
:100D50009CFF7820FFF7BDFF4020FFF7BAFF204639
:100D6000FFF7B7FFFFF7A3FF10BD2DE9F0410546E0
:100D70002F46002416E004F1B001C8B2FFF7D5FFFA
:100D80000020FFF7D2FF1020FFF7CFFF002605E07D
:100D900017F8010BFFF7D9FF701CC6B2802EF7DBE6
:100DA000601CC4B2082CE6DBBDE8F08170B50024FD
:100DB00015E004F1B001C8B2FFF7B7FF0020FFF75C
:100DC000B4FF1020FFF7B1FF002504E00020FFF77B
:100DD000BCFF681CC5B2802DF8DB601CC4B2082CB7
:100DE000E7DB70BD10B5AE20FFF79FFF2020FFF7B7
:100DF0009CFF1020FFF799FFB020FFF796FFC82057
:100E0000FFF793FF0020FFF790FF1020FFF78DFF03
:100E10004020FFF78AFF8120FFF787FFFF20FFF7C1
:100E200084FFA120FFF781FFA620FFF77EFFA82007
:100E3000FFF77BFF3F20FFF778FFA420FFF775FF48
:100E4000D320FFF772FF0020FFF76FFFD520FFF7D9
:100E50006CFFF020FFF769FFD920FFF766FF222023
:100E6000FFF763FFDA20FFF760FF1220FFF75DFF57
:100E7000DB20FFF75AFF2020FFF757FF8D20FFF7F9
:100E800054FF1420FFF751FFAF20FFF74EFFFFF78D
:100E90008DFF10BD10B58D20FFF747FF1420FFF721
:100EA00044FFAF20FFF741FF10BD10B58D20FFF7C5
:100EB0003CFF1020FFF739FFAE20FFF736FF10BDD3
:100EC000000C014070B504460D4601F030FC0646AA
:100ED00032462946204601F05DFC70BD70B50446DF
:100EE0000D462946204601F0D3FC08B1012070BD13
:100EF0000020FCE7FC4A1060FC4A116070470CB50A
:100F0000F94909680091F94909680191DDE9001280
:100F1000C0E900120CBDF44800687047F34800684F
:100F200070472DE9FF4F85B081464FF0000AD34648
:100F30000798A0EB090506990898461A1FFA89F048
:100F40000390069880B20290002D01DD012705E094
:100F50000DB9002702E04FF0FF376D42002E02DD91
:100F60004FF0010806E016B94FF0000802E04FF01C
:100F7000FF387642B54201DD2C4600E034460020C1
:100F800004901DE001F0D3FB02460190DDE9021060
:100F900001F000FCAA44B344A24505DDAAEB040A13
:100FA0000398384480B20390A34505DDABEB040BF6
:100FB0000298404480B202900498401C80B2049091
:100FC000611C04988842DDDD09B0BDE8F08F70B582
:100FD00005460C4623462A46C4480168C2480068B4
:100FE000FFF79FFFC0480560C048046070BD2DE951
:100FF000F04704460F46164604EB060801F097FB3F
:101000008146002C01DA002000E02046054605E07C
:101010004A463946284601F0BDFB6D1CB8F1800FE9
:1010200001DA404600E08020A842F1DCBDE8F0870C
:101030002DE9F04707460C46164604EB060801F07A
:1010400076FB8146002C01DA002000E020460546B0
:1010500005E04A462946384601F09CFB6D1CB8F174
:10106000400F01DA404600E04020A842F1DCBDE834
:10107000F08770B504460E460025D4E90001FFF75D
:1010800039FF012507E004EBC50254F8350051682B
:10109000FFF79DFF6D1CB542F5DB70BD2DE9F041FA
:1010A00004460D4616461F462B4632462946204624
:1010B000FFF737FF3B46324639462046FFF731FF00
:1010C0003B46224629462046FFF72BFF3B46324649
:1010D00029463046FFF725FFBDE8F0812DE9F041B4
:1010E00004460D4616461F463B46324629462046D4
:1010F000FFF7D4FF781B431E301B421E691C601C87
:1011000000F0DAFFBDE8F0812DE9F04104460D461C
:1011100016461F46A019421E2B4629462046FFF7B9
:1011200000FFE819431EA019421EE819411E20467F
:10113000FFF7F7FEE819431E224629462046FFF72F
:10114000F0FEE9194B1EA1194A1EA119481E294695
:10115000FFF7E7FEBDE8F0812DE9F04104460D46BA
:1011600016461F463B46324629462046FFF7CCFF2F
:101170007B1E721E691C601C00F09EFFBDE8F081A2
:101180002DE9F04706460F46904600240FFA88F5F1
:101190000320A0EB48000FFA80F952E001F0C7FAF3
:1011A000824679193019524601F0F4FA01F0BFFA7B
:1011B00082467919301B524601F0ECFA01F0B7FA79
:1011C00082463919701B524601F0E4FA01F0AFFA79
:1011D0008246391B701B524601F0DCFA01F0A7FA77
:1011E0008246791B301B524601F0D4FA01F09FFA77
:1011F0008246791B3019524601F0CCFA01F097FA79
:101200008246391B7019524601F0C4FA01F08FFA78
:10121000824639197019524601F0BCFA601C04B2BA
:10122000B9F1000F05DAA000801D48440FFA80F9DB
:1012300007E0601B80000A3048440FFA80F9681EFE
:1012400005B2AC42AADDBDE8F0872DE9FE4F0646A7
:101250000F4690469A46DDF83090C8F1010B012008
:1012600002904FEA4800404201900024454601F0B8
:101270005EFA009034E0BBF1000F05DB6D1E0198B3
:10128000801C019001988344641C0298801C029089
:10129000029883440AF0010078B16B005B1C4B4458
:1012A000DAB2791B3019FFF7C3FE63005B1C4B44B5
:1012B000DAB2391B7019FFF7BBFE0AF0020078B1F1
:1012C0006B005B1C4B44DAB2791B301BFFF7B0FE9E
:1012D00063005B1C4B44DAB2391B701BFFF7A8FE9E
:1012E000AC42C8DBBDE8FE8F300000203400002097
:1012F000F8B506460D4614466000401CC2B2291BD4
:101300003046FFF795FE0020E2B203232946009005
:101310003046FFF79AFFF8BD2DE9FC5F06460F4601
:1013200091469846C9F1010A4FF0010B4FEA490076
:101330004042019000244D4601F0F9F9009040E050
:10134000BAF1000F05DB6D1E0198801C0190019819
:101350008244641C0BF1020BDA4408F0040048B12B
:1013600079193019009A01F015FA39197019009A93
:1013700001F010FA08F0020048B1791B3019009A08
:1013800001F008FA391B7019009A01F003FA08F00D
:10139000080048B13919701B009A01F0FBF979195E
:1013A000301B009A01F0F6F908F0010048B1391B32
:1013B000701B009A01F0EEF9791B301B009A01F0C6
:1013C000E9F9AC42BCDBBDE8FC9F2DE9F04786B0F3
:1013D00005460E4614461F46DDF838804FF00009DA
:1013E0006846FFF78CFDDDE90001CDE902013146D9
:1013F000284601F077F8002001F071F8B8F5B47FC5
:1014000001DD4FF4B478002001F04AF83219294682
:10141000684601F07DF8DDE90001CDE90401DDE970
:101420000401FFF767FD384602F0F8FA814614E040
:10143000484601F035F832192946684601F068F847
:10144000DDE90001CDE90401DDE90401FFF7BFFD9D
:10145000FE49484602F0C4F88146404602F0DEFAF2
:101460008246494602F05AFBE2D328193146FFF77B
:10147000AEFDDDE90201FFF73DFD06B0BDE8F087F6
:1014800010B5029C10BD2DE9F04105460E461746E9
:101490009846069C022101FB1471CAB228193146F4
:1014A000FFF7A5FD022303FB1473DAB206EB080372
:1014B000591E2819FFF79BFD022000FB1480C2B2C1
:1014C00031192846FFF7B4FD022303FB1483DAB277
:1014D0003119EB19581EFFF7ABFD311928190123FB
:1014E0002246FFF719FF3119EA19121B501E022379
:1014F0002246FFF711FF06EB0802121B511EEA19E4
:10150000121B501E04232246FFF706FF06EB0802BB
:10151000121B511E281908232246FFF7FDFEBDE8C5
:10152000F0812DE9F84305460E4617469846089C7B
:10153000022101FB1472281943463146FFF70CFEC5
:10154000022000FB1480401E3119EA19121B009082
:10155000501E01232246FFF778FE022000FB148074
:10156000401E31190090281902232246FFF76DFE14
:10157000BDE8F8832DE9FF4F99B006460F4698461F
:101580001B9800FB00F908FB08FA4FEA4900179086
:101590004FEA4A00169000254446002015901798FF
:1015A0006043149001F0C3F8391913907019139A1D
:1015B00001F0F0F801F0BBF839191390701B139A81
:1015C00001F0E8F801F0B3F8391B13907019139A81
:1015D00001F0E0F801F0ABF8391B1390701B139A7F
:1015E00001F0D8F8484602F022FA0022984BCDE9E3
:1015F0000C0102F032F9CDE9100109FB18A002F04C
:1016000016FACDE90E01DDE9102302F07FF8CDE9ED
:10161000120102F02AFA834636E06D1CDDE915015D
:1016200008441590BBF1000F03DA15985044834429
:101630000AE0641E17991498401A149015980AEB42
:1016400000011498081A834401F071F839191390B5
:101650007019139A01F09EF801F069F83919139086
:10166000701B139A01F096F801F061F8391B139082
:101670007019139A01F08EF801F059F8391B139084
:10168000701B139A01F086F8DDE914108842C4DB60
:1016900009FB0AF002F0CBF9CDE91001611E01FB54
:1016A00009F1621E01FB02F002F0C1F9CDE90C0163
:1016B000284602F0BCF90022664BCDE9040102F095
:1016C00025F8CDE90801284602F0B1F90022614B66
:1016D000CDE9000102F01AF8CDE90401504602F00C
:1016E000A6F9CDE90201DDE9042302F0B6F8CDE95F
:1016F0000601DDE9082302F0B0F8CDE90A01DDE9D1
:101700000C2302F003F8CDE90E01DDE9102302F00D
:101710009EF8CDE9120102F0A8F9834637E0641E75
:1017200017991498401A1490BBF1000F04DD149817
:10173000A9EB000083440AE06D1CDDE915010844B3
:1017400015901498A9EB000115980844834400F003
:10175000EEFF391913907019139A01F01BF800F07D
:10176000E6FF39191390701B139A01F013F800F07B
:10177000DEFF391B13907019139A01F00BF800F07B
:10178000D6FF391B1390701B139A01F003F8002C3D
:10179000C5DC1DB0BDE8F08F2DE9FF4F85B0824656
:1017A00016461F46B3460BFB06FB4FEA4B0B03974F
:1017B000039F07FB07F00390039840000390354612
:1017C00000244FF00108A8EB0608A8EB060808FB68
:1017D00007F808FB07F8B14609FB06F9002004905A
:1017E00003980290029870430290002001903CE020
:1017F000631CDAB2069B191B0AEB0500FFF718FC05
:10180000631CDAB2069B191BAAEB0500FFF710FC5C
:10181000611CCAB20AEB05000699FFF709FC611CBE
:10182000CAB2AAEB05000699FFF702FC641C0198F6
:1018300058440190049848440490D94402210498E3
:1018400001FB0080002810DD6D1E05E00000A040B7
:101850000000D03F0000E03FDDE90201401A0290A5
:1018600004984044049003988044DDE901108842C4
:10187000BEDA00253C46B84608FB07F84FF00109E0
:10188000A9EB0709A9EB070909FB06F909FB06F90A
:10189000002004900290CDF804B0DDF804B00BFBFA
:1018A00007F0019036E0631CDAB2069B191B0AEBC5
:1018B0000500FFF7BDFB631CDAB2069B191BAAEB00
:1018C0000500FFF7B5FB611CCAB20AEB05000699DB
:1018D000FFF7AEFB611CCAB2AAEB05000699FFF741
:1018E000A7FB6D1CDDE90201084402900498404406
:1018F0000490039880440221049801FB0090002882
:1019000008DD641E0198A0EB0B0001900498484488
:101910000490D944DDE901108842C4DD09B0BDE876
:10192000F08F2DE9FE4F06460F4614469846A01B41
:10193000002801DB014600E041420D46A8EB07000C
:10194000002801DB014600E04142894609F0010A16
:10195000C5F10100800000FB09F000FB09FB0AF162
:101960000100800068436843029002980BEB00017D
:101970000AFB05F000FB05100190A64201DD26469A
:101980002C44474500DD474609F1010000EBD071CA
:1019900007EB6107A7EB0A08E80045434FEAC900D7
:1019A00000FB09FA00BF39462046FFF78BFA39469B
:1019B0003046FFF787FA41463046FFF783FA414643
:1019C0002046FFF77FFA01984000009000985845A4
:1019D00007DB761C641E0BEB0A018B46019808445A
:1019E000019002990098884208DC7F1CA8F1010848
:1019F000029841190291019808440190A642D2DD53
:101A000012E0701E3946FFF75DFA39467F1C601CF4
:101A1000FFF758FA701E4146FFF754FA4146A8F105
:101A20000108601CFFF74EFAA7EB08004845E8DB09
:101A3000BDE8FE8F2DE9F04704460D4616461F46C9
:101A4000DDE908893B46324629462046FFF769FA18
:101A50004B46424639463046FFF763FA2B4622464C
:101A600049464046FFF75DFABDE8F0872DE9F04FA3
:101A70008DB08046894615461C46DDE916AB002030
:101A80000490039000F053FE029000F056FE019087
:101A900000F04AFEA14509DD4C44A4EB0909A4EB82
:101AA00009044544A5EB0808A5EB08055C4509DDDC
:101AB0005C44A4EB0B0BA4EB0B045544A5EB0A0A06
:101AC000A5EB0A05A14509DD4C44A4EB0909A4EBEB
:101AD00009044544A5EB0808A5EB0805D94519D12B
:101AE00046463746B54201DA2E4602E0BD4200DDE9
:101AF0002F46B24501DA564602E0BA4500DD5746A8
:101B0000B81B401CC2B249463046FFF770FA0DB010
:101B1000BDE8F08FA5EB08000A90A4EB090009903E
:101B2000AAEB08000890ABEB09000790AAEB0500B0
:101B30000690ABEB040005900020049003905C45F8
:101B400001D10B9401E0601E0B90CDF8309022E0A3
:101B50000999049890FBF1F000EB080607990398A7
:101B600090FBF1F000EB08070A99049808440490F0
:101B70000899039808440390BE4202DD3744BE1B17
:101B8000BF1BB81B401CC2B230460C99FFF72FFA9E
:101B90000C98401C0C90DDE90B108842D8DD0C98A5
:101BA000001B0699484304900C98A0EB0900089983
:101BB0004843039021E0DDE9040190FBF1F0461970
:101BC0000799039890FBF1F000EB08070699049839
:101BD000084404900899039808440390BE4202DD2B
:101BE0003744BE1BBF1BB81B401CC2B230460C9909
:101BF000FFF7FDF90C98401C0C900C985845DADD65
:101C0000029800F091FD00BF81E72DE9FF4F83B0FE
:101C1000054688469946DDF840B0B8F1000101DB81
:101C20000A4600E04A421046D21700EB5272D21028
:101C3000A0EBC20A40464FEAE87108EB5171C910A7
:101C4000029158464FEAEB710BEB5171C9100191AB
:101C500005EB0900002808DB7F2D06DC08EB0B00F4
:101C6000002802DBB8F13F0F02DD07B0BDE8F08FBE
:101C7000B8F1000F04DA0298401E0290CAF1080A77
:101C80004FEAEB710BEB5171C910ABEBC10111B114
:101C90000198401C01900027B9E00298C619072E50
:101CA00000DDB8E016F1020F78DD0024AAE060192B
:101CB0007F2800DDA9E0601900286EDB002E4ADBDA
:101CC00000F035FD012816D12919304600F047FDF6
:101CD0000090059907FB0911081900F0F9FC00FABA
:101CE0000AF000990843C0B2009029193046009AC2
:101CF00000F043FD2FE000F01AFDA8B92919304685
:101D000000F02DFD0090059907FB0911081900F05E
:101D1000DFFC00FA0AF10098884300902919304648
:101D2000009A00F02AFD16E02919304600F017FD50
:101D30000090059907FB0911081900F0C9FC00FA89
:101D40000AF000994840C0B2009029193046009A24
:101D500000F013FD00BFBAF1000F52D0072E50DA89
:101D600016F1020F4DDD00F0E2FC012817D1291910
:101D7000701C00F0F4FC0090059907FB091108198C
:101D800000F0A6FCCAF10801084100990843009040
:101D90002919701C009A00F0F0FC32E036E000F0E7
:101DA000C6FCB8B92919701C00F0D9FC009005993F
:101DB00007FB0911081900F08BFCCAF1080140FA71
:101DC00001F10098884300902919701C009A00F0D6
:101DD000D4FC16E02919701C00F0C1FC0090059994
:101DE00007FB0911081900F073FCCAF1080108414A
:101DF0000099484000902919701C009A00F0BDFC21
:101E000000BF641C4C45FFF652AF00BF7F1C019819
:101E10008742FFF642AF00BF00BF26E72DE9F84F2B
:101E200006460F4691469846DDF828A008F10700BF
:101E3000C11700EB5171C910009106EB0800002892
:101E400007DB7F2E05DC07EB0A00002801DB3F2FB4
:101E500001DDBDE8F88F00251DE0002418E0E11742
:101E600004EB5171CA10009905FB0191501800F064
:101E70002FFC04F0070280211141084038B100F026
:101E800056FC8346791930195A4600F083FC641CCD
:101E90004445E4DB6D1C5545DFDB00BFD9E72DE988
:101EA000F74F84B00746884600F091FD054600F0E4
:101EB0003EFC019000F083FD0290DDE901108842B4
:101EC00001D0012000E000200390802F0EDAB8F14D
:101ED000400F0BDA052000FB0570401E002805D4DA
:101EE000082000FB0580401E002802D507B0BDE891
:101EF000F08F00243EE0052C01D1002608E0069971
:101F000001EB8101544A1144081900F0E1FB064637
:101F10004FF000092AE006F0010008B1019800E046
:101F200002980090009808B90398E0B14FF0000AB9
:101F300017E04FF0000B0EE009FB058202EB0B01EE
:101F400004FB057202EB0A00009A00F023FC0BF17F
:101F5000010000F0FF0BAB45EEDB0AF1010000F0E1
:101F6000FF0AAA45E5DB761009F10109B9F1080F6E
:101F7000D1DB641C062CBEDB00BFB7E72DE9F047C0
:101F800006460F461546002406F0FF0807F0FF0935
:101F900000F01DFD82461AE0285D0A2809D10820BC
:101FA00000FB0A9000F0FF0906F0FF08601CC4B2B5
:101FB0000DE02A5D49464046FFF771FF0AEB4A00F3
:101FC00008EB400000F0FF08601CC4B200BF285DB1
:101FD0000028E1D1BDE8F0872DE9F05F06468A468A
:101FE00090461D464FF0000B00F0F1FC81460024A6
:101FF0002DE0281B401EC1B20A2000F06CFBB8FB8C
:10200000F0F00A21B0FBF1F201FB1207BBF1000F67
:102010000FD1681EA0420CDD4FB909EB4901490000
:1020200001FB046030225146FFF739FF0DE04FF00D
:10203000010B07F13001CAB209EB4901490001FB6C
:1020400004605146FFF72BFF00BF601CC4B2AC42D6
:10205000CFDBBDE8F09F70478448000810B5FEF75D
:10206000E1FD10BD10B5002000F049FC10BD10B519
:1020700000F041FC10BD2DE9F04105460E46144626
:1020800000F05BFB58B13146284600F068FB40EA9F
:1020900004073A463146284600F06FFB0AE0314615
:1020A000284600F05CFB20EA04073A463146284601
:1020B00000F063FBBDE8F0812DE9FF4F81B0804661
:1020C0000C46994604EB0902511ECA1701EB5272E5
:1020D000D2102046E31704EB5373A2EBE302009205
:1020E000B8F1800F01DC402C02DD05B0BDE8F08FB7
:1020F00047465DE00098B8B925462646E11704EB4F
:102100005171C910A4EBC103A9F10101DFF828C482
:102110001CF801109940CAB2E11704EB5171C810C4
:102120003946FFF7A8FF42E025462646E11704EBB3
:102130005171C910A4EBC101C1F10701FE4B595CFB
:10214000A346E31704EB5373DB10A4EBC3039940DE
:10215000CAB2E11705EB5171C8103946FFF78BFF82
:102160004FF0010A0BE02546E11704EB51710AEB31
:10217000E100FF223946FFF77EFF0AF1010A0098CD
:102180008245F0DBA9F101010D19E91705EB517149
:10219000C910A5EBC101E84B5A5C2646E11704EBD8
:1021A0005171CB10009958183946FFF764FF7F1C16
:1021B00003984044B84201DD802F9BDB00BF94E7C9
:1021C0002DE9F05F82460C461746E219511ECA17E8
:1021D00001EB5272D2102046E31704EB5373A2EBCB
:1021E000E309B9F1000F16D125462646E11704EBA5
:1021F0005171C910A4EBC103791EDFF83CC31CF870
:1022000001109940CAB2E11704EB5171C810514650
:10221000FFF731FF3FE025462646E11704EB5171F9
:10222000C910A4EBC101C1F10701C34B595CA3461E
:10223000E31704EB5373DB10A4EBC3039940CAB25A
:10224000E11705EB5171C8105146FFF714FF4FF02D
:1022500001080BE02546E11704EB517108EBE100A2
:10226000FF225146FFF707FF08F10108C845F1DBDF
:10227000791E0D19E91705EB5171C910A5EBC101C4
:10228000AD4B5A5C2646E11704EB517109EBE100B6
:102290005146FFF7F0FEBDE8F09F2DE9F84F0446E8
:1022A000A146A246A54850444FEA500A544621464A
:1022B000484601F0EDF92146009001F091F983467E
:1022C00001F0F2FB074600229D4B01F0C6FA0546DD
:1022D00001F0FDFB04462046BDE8F88F30B503460B
:1022E0000BB9002030BD00219A0F9B00012A01D9B3
:1022F000491C521A0F240DE04900920002EB937220
:102300000D46012000EB45059B00AA4201D3521B5C
:10231000491C641E002CEFD10846E3E72DE9FF4F6E
:102320008BB092469B46DDE91889DBF800100C98CB
:10233000081A4043DAF800200B99521ADAF80030F4
:10234000591A02FB01000A900A9801F067FB0890F5
:10235000FFF7A3FF099001F0A7FB04460D46DBF849
:1023600000200C99501A01F062FBCDE90801DAF85F
:1023700000200B99501A01F05AFBCDE90601DDE966
:10238000082302F021F906460F461A98002842D089
:1023900042464B463046394601F0B8F9CDE90001D6
:1023A00002F0D2F922462B46CDE9020101F055FA9E
:1023B000CDE906010B9801F03AFBCDE90401DDE916
:1023C000062301F0A3F9CDE9080101F04EFBCAF89C
:1023D000000042464B463046394601F097F9CDE9B8
:1023E000000102F0FFF922462B46CDE9020101F07F
:1023F00034FACDE906010C9801F019FBCDE904018E
:10240000DDE9062301F082F9CDE9080101F02DFB99
:10241000CBF8000041E042464B463046394601F0D9
:1024200016FACDE9000102F08FF922462B46CDE9DC
:10243000020101F012FACDE906010B9801F0F7FA5A
:10244000CDE90401DDE9062301F060F9CDE90801D9
:1024500001F00BFBCAF8000042464B4630463946B5
:1024600001F0F5F9CDE9000102F0BCF922462B4656
:10247000CDE9020101F0F1F9CDE906010C9801F076
:10248000D6FACDE90401DDE9062301F03FF9CDE9F3
:10249000080101F0EAFACBF800000FB0BDE8F08FB8
:1024A0002DE9F04782460021504601F02DFB02D174
:1024B000002001460CE0504601F0F6FA8046214A21
:1024C000214B01F0CAF906460022204B01F037FAF1
:1024D000044601F0FCFA1E498860BDE8F0871C49FB
:1024E000C86070471A4A1060516070472DE9F0418A
:1024F00006460F4614461D4639463046FFF7F2FFA2
:102500002846FFF7ECFF2046FFF7CAFFBDE8F08141
:102510002DE9F04188B004460D461646059504960F
:102520000B49886801F0C0FA07460948C068084AA4
:10253000CDE9007102900DE04800002062CF763FA7
:102540000000E03F6E861BF0F921094000806640E4
:1025500038000020516804AB106805AAFFF7DEFEC2
:102560000598069004980790DDE90601C4E900018A
:1025700008B0BDE8F0812DE9F04104460D4616464D
:102580001F46FFF774FD2946204600F081F9B0424E
:1025900020D13A462946204600F0FCF8611EC8B218
:1025A0003B4632462946FFF7E6FF611CC8B23B4670
:1025B00032462946FFF7DFFF681CC1B23B46324670
:1025C0002046FFF7D8FF681EC1B23B463246204680
:1025D000FFF7D1FFBDE8F08170B506460C46154601
:1025E0002146304600F054F9A8420BD10CB9002026
:1025F00070BD601EC1B22A463046FFF7EDFF401C99
:10260000C0B2F5E70020F3E770B506460C46154664
:102610002146304600F03CF9A8420CD13F2C01D1B4
:10262000002070BD601CC1B22A463046FFF7D4FFBF
:10263000401CC0B2F5E70020F3E72DE9F04707465C
:10264000884615469A464FF0000900263C4615E09C
:10265000EAB2E0B24146FFF7D7FF8146EAB2E0B204
:102660004146FFF7B9FF064609EB0602A8EB060153
:1026700053462046FFF7A4FD601C04B241462046A5
:1026800000F006F9A84201D1802CE1DB7C1E15E0A8
:10269000EAB2E0B24146FFF7B7FF8146EAB2E0B2E4
:1026A0004146FFF799FF064609EB0602A8EB060133
:1026B00053462046FFF784FD601E04B24146204683
:1026C00000F0E6F8A84201D1002CE1DCBDE8F0877B
:1026D00001460878704710B50246012000E05043DB
:1026E0000B1EA1F10104E1B2F9D110BD10B50446F1
:1026F0000C48006858B9FFF7BAFCFFF7B3FC4FF479
:102700007A7090FBF4F007490860012010BD0020AA
:10271000FCE70449086000BF024909680029FBD1B1
:10272000704770472C000020054908707047044826
:102730000078704703490870704702480078704776
:102740005000002051000020002098490870704778
:1027500001209649087070479448007870470246F7
:102760009248007820B1924800EBC210405C70475C
:10277000904800EBC210405CF9E78C4B1B7823B10A
:102780008B4B03EBC0135A5403E08A4B03EBC0138B
:102790005A547047F0B514467F2801DC3F2900DD0C
:1027A000F0BD824A1278C2B3DCB1CD1701EB55758A
:1027B000ED107F4E06EBC5152D5C0B46CE1701EBD9
:1027C0005676F610A1EBC6070126BE4035430A46F1
:1027D000CE1701EB5676F610754F07EBC61635543B
:1027E00054E0CD1701EB5575ED10714E06EBC51594
:1027F0002D5C0B46CE1701EB5676F610A1EBC60703
:102800000126BE40B5430A46CE1701EB5676F610B8
:10281000674F07EBC616355438E0FFE7DCB1CD173C
:1028200001EB5575ED10634E06EBC5152D5C0B469F
:10283000CE1701EB5676F610A1EBC6070126BE4077
:1028400035430A46CE1701EB5676F610594F07EB83
:10285000C61635541AE0CD1701EB5575ED10554EDF
:1028600006EBC5152D5C0B46CE1701EB5676F61020
:10287000A1EBC6070126BE40B5430A46CE1701EBC1
:102880005676F6104B4F07EBC616355400BF87E758
:10289000F0B504467F2C01DC3F2901DD0020F0BDAE
:1028A0004248007898B10A46C81701EB5070C01032
:1028B0003F4B03EBC010005D0D46CB1701EB53738C
:1028C000DB10A1EBC303184100F00100E7E70B4662
:1028D000C81701EB5070C010364F07EBC010005DF9
:1028E0000E46CF1701EB5777FF10A1EBC707384112
:1028F00000F00100D3E710B5FEF79AF910BD10B54E
:10290000044622464FF48061294800F057FE10BD6E
:1029100010B54FF48061274800F057FE10BD70B528
:10292000064636B1012E0BD0022E24D0032E3AD10A
:1029300009E04FF480621F491D4800F02DFE33E08E
:10294000FFF7E6FF30E0002412E000250DE0184814
:1029500000EBC410405D174901EBC411495D084309
:10296000134901EBC41148556D1C802DEFDB641C2D
:10297000082CEADB18E0002412E000250DE00C48EA
:1029800000EBC410405D0B4901EBC411495D884365
:10299000074901EBC41148556D1C802DEFDB641C09
:1029A000082CEADB00E000BF00BF70BD5200002031
:1029B0006000002060040020064908707047054848
:1029C00000787047012801DB03490870704702480E
:1029D0000078704753000020540000202DE9F04F8C
:1029E000CFB03F204D901F204C90002401254B90EC
:1029F0004FF0010900204A909FE0FFF733FB0024CD
:102A000067E04D9801F013F8CDE90A01284601F07E
:102A10000EF8CDE90001204601F01AF88246F74A87
:102A2000F74B00F01AFF0746DDE9002300F087FFAF
:102A3000CDE9020101F088FECDE906014B9800F0D6
:102A4000F6FFCDE90401DDE9062300F006FFCDE93C
:102A50000801DDE90A2300F059FECDE90C0101F07F
:102A600004F82CA941F824004C9800F0E0FFCDE9CF
:102A70000A01284600F0DBFFCDE90201204600F004
:102A8000E7FF0746DD4ADE4B00F0E7FECDE9000137
:102A9000DDE9022300F053FFCDE9040101F0A2FEBD
:102AA000CDE906014B9800F0C2FF8246DDE906231E
:102AB00000F0D3FECDE90801DDE90A2300F026FE8F
:102AC000CDE90C0100F0D1FF0EA941F82400601CF3
:102AD000C4B2AC4295DB002417E0601CC6B20FE024
:102AE0000EAF57F826302CAF57F826200EAF57F808
:102AF00024102CAF57F82400FEF713FA701CC6B24E
:102B0000681EB042ECDA601CC4B2A81EA042E4DA2F
:102B10004D44142D00D00DB9C9F100096420FEF711
:102B20005BF8FFF7A4FA4A98401C4A905A2804D14F
:102B300000204A904FB0BDE8F08F5EE72DE9F041EC
:102B40000027002415E0002510E000260BE03246A7
:102B50002946204600F06AFC7F1CB7F5487F01DB60
:102B6000BDE8F081761C3C2EF1DB6D1C3C2DECDBCE
:102B7000641C0C2CE7DB00BFF2E7F0B5ADF2044DAE
:102B800000263C274FF4806101A800F01EFD0220C2
:102B900000F0FAFC002437E001A800EBC400C07983
:102BA00088BB00F0E7FC7F2190FBF1F201FB1200F3
:102BB00000B201A921F8340000F0DCFC0546C01782
:102BC00005EB90608011A5EB801000B201A901EB2C
:102BD000C4014880002001A901EBC401887100F004
:102BE000C9FC0546C01705EB5070C010A5EBC0002E
:102BF000401C00B201A901EBC4018880012001A999
:102C000001EBC401C871641C802CC5DBA1E038460F
:102C1000FFF76CFD012808D1761C07EB8700B6EBA7
:102C2000400F02DB0DF2044DF0BD00248EE001A840
:102C300000EBC400C07948BB002001A921F8340092
:102C400000F098FC0546C01705EB90608011A5EBDD
:102C5000801000B201A901EBC401488000F08AFC99
:102C6000062190FBF1F201FB1200401C00B201A909
:102C700001EBC4018880002001A901EBC401887127
:102C8000012001A901EBC401C8715EE001A800EBBD
:102C9000C4008079401C01A901EBC401887101A81E
:102CA00030F934007C2804DB002001A901EBC401C9
:102CB000C8710020FFF738FD01AD05EBC405B5F97B
:102CC000023001AD35F9342005EBC405B5F9021029
:102CD00001AD35F93400FEF724F90120FFF724FD9A
:102CE00001A800EBC400807901A901EBC401B1F98E
:102CF000041088420CD1002001A901EBC4018871A5
:102D000001A830F83400401C00B201A921F83400B9
:102D100001A800EBC400B0F90400062191FBF0F01B
:102D200001A931F934100844451E01AA02EBC4027E
:102D3000B2F9023001AA02EBC402B2F9021001AAF0
:102D400032F934002A46FEF7ECF8641C802CFFF6BA
:102D50006EAF5CE71FB5FFF785F940208023294A55
:102D6000002100900846FEF750FFFFF780F94FF46E
:102D7000FA60FDF731FFFFF775F90120FFF722FE3A
:102D800021A200210846FFF7F9F8FFF770F94FF488
:102D90007A70FDF721FF0220FFF714FE1AA2082126
:102DA0000020FFF7EBF8FFF762F94FF47A70FDF7B8
:102DB00013FF0320FFF706FE13A218210020FFF7E0
:102DC000DDF8FFF754F94FF47A70FDF705FFFFF7D0
:102DD00049F900240DE004EB840042003F23002168
:102DE0000846FEF79EF8FFF742F96420FDF7F4FE6F
:102DF000641C142CEFDB00241AE000004AD8124DAA
:102E0000FB211940BC5A000874657374000000006F
:102E100004EB84008021A1EB40023F2300218020AD
:102E2000FEF77FF8FFF723F96420FDF7D5FE641C59
:102E3000142CEDDB4FF47A70FDF7CEFE002538E060
:102E40000DB9FFF70FF900240FE06100C1F1400355
:102E50008021A1EB840260002146FEF755F9FFF7BF
:102E600006F96420FDF7B8FEA41C1F2CEDDB0DB99C
:102E7000FFF7F8F84FF4FA70FDF7AEFE1F240FE0ED
:102E80006100C1F140038021A1EB84026000214672
:102E9000FEF762F9FFF7EBF86420FDF79DFEA41E34
:102EA000002CEDDC0020FFF73FFC0020FFF742FC88
:102EB0006D1C022DC4DB0120FFF736FC0120FFF75B
:102EC00039FC002540E00DB9FFF7CCF8002413E0F1
:102ED00002206100C1F14001CBB28021A1EB84014D
:102EE000CAB2009060002146FEF7CDFAFFF7BFF8A6
:102EF0006420FDF771FEA41C1F2CE9DB0DB9FFF760
:102F0000B1F84FF4FA70FDF767FE1F2413E00220BA
:102F10006100C1F14001CBB28021A1EB8401CAB2B2
:102F2000009060002146FEF7FCFAFFF7A0F864204D
:102F3000FDF752FEA41E022CE9DC0020FFF7F4FB93
:102F40000020FFF7F7FB6D1C022DBCDB0120FFF713
:102F5000EBFB0120FFF7EEFBFFF784F81F233F2276
:102F600019461046FEF706FBFFF781F84FF47A701A
:102F7000FDF732FEFFF776F81F23102219463F2097
:102F8000FEF7F8FAFFF773F84FF47A70FDF724FEB6
:102F9000FFF768F81F233F2219461046FEF7FCFB97
:102FA000FFF765F84FF47A70FDF716FEFFF75AF851
:102FB0001F23102219463F20FEF7EEFBFFF757F8BC
:102FC0004FF47A70FDF708FEFFF74CF81E221F2120
:102FD0003F20FEF7D5F8FFF74AF84FF47A70FDF777
:102FE000FBFDFFF73FF81E221F213F20FEF780F96F
:102FF000FFF73DF84FF47A70FDF7EEFDFFF732F87A
:1030000032203C211E236422CDE900100A21052034
:10301000FEF710FDFFF72BF84FF47A70FDF7DCFD9B
:10302000FFF720F832203C211E236422CDE9001056
:103030000A210520FEF71AFDFFF719F84FF47A7000
:10304000FDF7CAFDFFF70EF810200346CA4A00211B
:1030500000900846FEF7D9FDFFF709F84FF47A70A3
:10306000FDF7BAFD20200346C44A0021009010203D
:10307000FEF7CBFDFEF7FBFF4FF47A70FDF7ACFDDA
:1030800040200346BE4A002100903020FEF7BDFDDF
:10309000FEF7EDFF4FF47A70FDF79EFDFEF7E2FFBD
:1030A00000240BE000231E221F213F200094FEF786
:1030B0008CF9FEF7DCFFFEF7D5FF641CB4F5B87F92
:1030C000F0DD1E221F213F20FEF75AF8FEF7CFFF4A
:1030D0004FF4FA70FDF780FD002411E022461F2115
:1030E0003F20FEF705F91E221F213F20FEF748F87A
:1030F000FEF7BDFFFEF7B6FF6420FDF76DFD641C13
:103100000A2CEBDB002426E0204600F087FC064674
:10311000FFF7C6F91F213F20FFF7E4F93D223F21C9
:103120006846FFF7F5F9DDE90001CDE90201052266
:10313000DDE90201FEF7DCF81E221F213F20FEF729
:103140001FF80A221F213F20FEF7D2F8FEF78FFF5B
:10315000FEF788FF641CB4F5347FD5DB00242BE038
:1031600004F5347000F05AFC0646FFF799F904F1B3
:103170003F001F21FFF7B6F904F13F013D226846E9
:10318000FFF7C6F9DDE90001CDE902010522DDE91D
:103190000201FEF7ADF804F13F001E221F21FDF7EA
:1031A000EFFF04F13F000A221F21FEF7A1F8FEF70E
:1031B0005EFFFEF757FF641C5F2CD1DBFFF7DDFCE1
:1031C000FFF7BCFCFFF70AFC4FF47A70FDF704FD33
:1031D000FEF748FF0220FFF7F5FB6AA21021082046
:1031E000FEF7CCFEFEF743FF4FF4FA60FDF7F4FC68
:1031F000FEF738FF28208023654A0A21009000202E
:10320000FEF703FDFEF733FF00BFFEE700BFFEE75A
:10321000ADF5587D0025012000F0B6F9002407E047
:10322000A01E00EB8000400096A941F82400641C19
:10323000422CF5DBFEF716FF9DE0642D27D000F051
:1032400099F90646C01706EB90708010A6EB800037
:10325000401C00B205EB45016A4602EB4101888043
:1032600000F088F9422190FBF1F201FB120496A8CC
:1032700030F8240000B205EB45012DF811000020C4
:1032800005EB45016A4602EB410148806D1C0024B4
:1032900068E004EB4400694601EB4000408804EB21
:1032A00044016A4602EB41018988084400B204EBFC
:1032B000440102EB4101488004EB44026B4603EBFE
:1032C0004202B2F90220511C04EB44023DF9120003
:1032D000FDF7F8FD04EB44026B4603EB4202B2F942
:1032E000021004EB44023DF91220501CFDF7EAFDE8
:1032F00004EB44026B4603EB4202B2F9021004EB0A
:1033000044023DF91200FDF7DDFD04EB44026B467B
:1033100003EB4202B2F9021004EB44023DF9122021
:10332000501EFDF7CFFD04EB44026B4603EB420257
:10333000B2F90220511E04EB44023DF91200FDF7E0
:10334000C1FD04EB4400694601EB4000B0F9020006
:103350003F2806DD002004EB44016A4602EB4101F0
:103360004880641CAC4294DB1E20FDF735FCFEF760
:103370007EFEFEF777FE60E79C550008BC5500080E
:103380003C5600082053686F7720456E642000008B
:103390003C5800082DE9F0438BB004460D46164614
:1033A0001F46FDF7BBFD8046FDF7B5FD81462A4669
:1033B000214601A8FFF7ACF8DDE90101CDE90901DB
:1033C000A1192A4601A8FFF7A3F8DDE90101CDE91B
:1033D0000701EA19A11901A8FFF79AF8DDE901012F
:1033E000CDE90501EA19214601A8FFF791F8DDE9C9
:1033F0000101CDE90301DDE90901FDF77BFDDDE90F
:103400000701FDF7E4FDDDE90501FDF7E0FDDDE97C
:103410000301FDF7DCFDDDE90901FDF7D8FD4146BB
:103420004846FDF767FD0BB0BDE8F0832DE9F0439A
:103430008DB007460C46154600BFC4EB0410400093
:103440003C2190FBF1F0C7EB071100EB4109484626
:1034500000F0E4FA8046012342461F213F20FFF797
:1034600045F81F22312101A8FFF752F8DDE90101DB
:10347000CDE90B011F213F20DDE90B23FDF751FDB5
:1034800005EB450040003C2190FBF1F004EB4401CA
:1034900000EB4109484600F0C1FA8046012342464C
:1034A0001F213F20FFF722F81F222A2101A8FFF742
:1034B0002FF8DDE90101CDE909011F213F20DDE9F8
:1034C0000923FDF72EFD05EB4501480000F0A6FAA3
:1034D0008046012342461F213F20FFF707F81F22A5
:1034E000232101A8FFF714F8DDE90101CDE9070167
:1034F0001F213F20DDE90723FDF713FD002625E00E
:10350000C6EB0611480000F089FA804601234246C6
:103510001F213F20FEF7EAFF1F22222101A8FEF70C
:10352000F7FFDDE90101CDE905011F22272101A8EF
:10353000FEF7EEFFDDE90101CDE90301DDE903233B
:10354000DDE90501FDF7EDFC701CC6B20C2ED7DBE2
:1035500002221F213F20FDF7CBFE1E221F213F200C
:10356000FDF70EFEFEF783FDFEF77CFD0DB0BDE816
:10357000F08300000649074A0868504343F23902C5
:103580001044086040087047014908607047000017
:10359000580000206D4EC64140EA01039B0703D04E
:1035A00009E008C9121F08C0042AFAD203E011F882
:1035B000013B00F8013B521EF9D27047D2B201E044
:1035C00000F8012B491EFBD270470022F6E710B528
:1035D00013460A4604461946FFF7F0FF204610BD81
:1035E000F0B480EA0102D40F4200B2EB410F02D2E4
:1035F0000246084611464A0042D0C30DDDB2C1F36F
:10360000C752AD1A202D35DAC1F3160141F400027C
:1036100004B15242C5F1200602FA06F12A411044D3
:10362000B3EBD05F23D0C4B1012DA0EBC35009DCB4
:10363000F0BC4FF0004202EAC352DBB200F50000DA
:1036400000F0B0BA400000F1807000EBC350A0F170
:10365000807040EAD170490009E0490841EAC07130
:10366000A0EBC35000F50000400800EBC350F0BCD5
:1036700000F08FBA6142012202EB4101001BF6E724
:10368000F0BC704781F00041AAE780F00040A7E756
:1036900030B480EA010202F0004530F0004221F02F
:1036A000004013D090B1C30DD40DC2F31601C0F386
:1036B0001600E41A41F4000140F400027D34914206
:1036C00001D3641C00E04900002C02DA30BC002069
:1036D00070474FF400000023914201D3891A03433D
:1036E00040084FEA4101F7D151B1914202D14FF068
:1036F000004105E002D24FF0010101E06FF001014D
:1037000003EBC450284430BC00F043BA2DE9FE4F0F
:10371000804681EA0300C00F0C46009021F0004172
:1037200023F00045B8EB0200A94105D240462146EE
:1037300090461C460B46024623F00040104347D0FB
:10374000270DC7F30A00C3F30A510290401A0190F3
:1037500040286BDAC3F3130040F4801B00989246B4
:1037600020B10023D2EB030A63EB0B0B01985946FF
:10377000C0F14002504600F0DBF906460D465046C7
:103780005946019A00F0F3F910EB0800614100245A
:1037900087EA115284EAE7731A4340D0009A62B371
:1037A000019A012A4FEA075215DC001B61EB020166
:1037B0004FF0004202EA0752CDE90042001C41F5F9
:1037C000801132462B4600F02AFA03B0BDE8F08F94
:1037D00040462146F9E7001B61EB0201001C41F560
:1037E000801300185B412018A2F5001747EB030176
:1037F00040EAD570B6196D4111E06D084FEA360602
:1038000045EAC0754FEA0752001B61EB0201001C3C
:1038100041F5801149084FEA300000195141324604
:103820002B4603B0BDE8F04F00F0EAB90098012242
:1038300040000023D0EB020263EBE07300982146C6
:103840004FEAE074B8EB000061EB0401E9E783F0B4
:1038500000435BE781F0004158E72DE9FE4F81EA24
:10386000030404F0004421F0004100944FF0000BE9
:1038700023F0004350EA01045ED052EA03045BD017
:10388000C3F30A54C1F30A552C44A4F2F33401944F
:10389000A0FB0254C1F3130141F48011C3F31303DD
:1038A00043F4801301FB024400FB034E840A970A91
:1038B00044EA815447EA8357A4FB076802958D0ABE
:1038C00005FB07854FEA932C04FB0C542705029D4A
:1038D0004FEA065847EA1637B5EB08056EEB070CBA
:1038E000870E920E47EA811742EA8312A7FB020174
:1038F000B6EB0B0164EB00042B0D43EA0C335E18AE
:1039000044EB1C50DA465146E7FB0201C5F31304B1
:103910004FEA0B3343EA14534FEA0432019C43EA63
:103920000603A4F10C040294009CCDE900B400F05D
:1039300076F903B0BDE8F08F00200146F9E72DE9E4
:10394000F04D81EA030404F0004B21F000451446D9
:103950004FF0000A23F0004150EA050220D054EA5B
:1039600001021DD0C5F30A570246C5F31303C1F384
:103970001300C1F30A5640F4801543F48013A7EBFB
:103980000608101BD64608F2FD3873EB050002D37B
:1039900008F1010801E092185B41B8F1000F03DA69
:1039A00000200146BDE8F08D00204FF4801106464E
:1039B00084460EE0171B73EB050705D3121B63EB60
:1039C000050306434CEA010C49084FEA30009218FF
:1039D0005B4150EA0107EDD152EA030012D082EABE
:1039E000040083EA0501084305D0101BAB4106D251
:1039F0000122002306E000224FF0004302E06FF0B6
:103A0000010253101AEB06004CEB085110EB0A00B0
:103A100041EB0B01BDE8F04D00F0F2B8C10F80EAB8
:103A2000E0700844CA079623002100F0BBB80EB529
:103A3000C10F80EAE0700844CA07002140F2334316
:103A40008DE80E000A460B4600F0E9F803B000BD11
:103A50000EB540F2334102910021CDE900110A4632
:103A60000B4600F0DCF803B000BD70B5C1F30A529C
:103A700001F000450024C1F3130140F2FF3341F48B
:103A800080119A4201DA002070BD40F233439A421D
:103A9000A2F2334203DC524200F059F800E09040B9
:103AA0002C43F1D0404270BD00F0004230F00040A5
:103AB0000AD0C10D01F56071C0F3160042EA015150
:103AC000C20840071143704700200146704701F0CB
:103AD000004330B421F0004150EA010206D00A0D43
:103AE000A2F56072C1F31301002A02DC30BC002091
:103AF0007047440F44EAC104C100E01830BC00EB39
:103B0000C25000F046B80000002801DBC0F10040C0
:103B1000002901DBC1F1004181427047002801DB2F
:103B2000C0F10040002901DBC1F10041884270472B
:103B3000202A04DB203A00FA02F10020704791406D
:103B4000C2F1200320FA03F3194390407047202A62
:103B500004DB203A21FA02F00021704721FA02F337
:103B6000D040C2F120029140084319467047202AF4
:103B700006DBCB17203A41FA02F043EAE07306E095
:103B800041FA02F3D040C2F12002914008431946A5
:103B900070470029A8BF7047401C490008BF20F0AB
:103BA0000100704710B4B0FA80FC00FA0CF050EA43
:103BB000010404BF10BC704749B1CCF1200421FAC4
:103BC00004F411FA0CF118BF012121430843A3EBBF
:103BD0000C01CB1D4FEA00614FEA102042BF0020CC
:103BE00010BC704700EBC35010440029A4BF10BCA8
:103BF0007047401C490008BF20F0010010BC70470E
:103C000010B5141E73F1000408DA401C41F10001E4
:103C100092185B411A4301D120F0010010BD2DE93B
:103C2000F04D92469B4611B1B1FA81F202E0B0FA32
:103C300080F220329046FFF77BFF04460F4640EAB1
:103C40000A0041EA0B0153465A46084313D0114675
:103C500053EA010019D0C8F140025046FFF777FF40
:103C600005460E46504659464246FFF761FF084357
:103C700005D0012004E020463946BDE8F08D002043
:103C8000054346EAE0762C4337430A986305E40A85
:103C9000A0EB08000022FD0A44EA47540A3002D58E
:103CA00000200146E9E7010510196941DDE90845F1
:103CB00000196941BDE8F04DA2E70000064C074D30
:103CC00006E0E06840F0010394E8070098471034EC
:103CD000AC42F6D3FCF730FA80600008A060000820
:103CE00070B521F0004303430CD0C1F30A55002402
:103CF000D5EB040564EB0403D617AD1AB34102DB20
:103D00000020014670BD201841EB025170BD4900F2
:103D100050EAC12018BF04204A0D18BF40F001002E
:103D200040F2FF72B2EB515F08BF40F00200012881
:103D300008BF0520704700002DE9F74F144694B0E6
:103D40000021C4E902111599079121F00045C949E4
:103D50008D4206DC1599C4E9000117B00020BDE8CA
:103D6000F08FC549DFF814A3A9423CDD0799C44E82
:103D70000029C44FC44A1599534619DDFFF767FD62
:103D8000554506D0C14AC24BFFF761FDC4E90001A9
:103D90000AE04FF0D352BE4BFFF759FD32463B4687
:103DA000FFF755FDC4E9000117B00120BDE8F08F11
:103DB000FFF7ACFC554506D0B44AB54BFFF7A6FC5F
:103DC000C4E900010AE04FF0D352B14BFFF79EFC6B
:103DD00032463B46FFF79AFCC4E9000117B04FF0AA
:103DE000FF30BDE8F08FAB49A942159978DB21F08F
:103DF000004183468846A84AA84BFFF72EFD0022C3
:103E0000A74BFFF783FCFFF730FE0990FFF70FFE8B
:103E100006460F469C4A5346FFF71FFD43465A4647
:103E2000FFF718FD80468A46984A994B3046394636
:103E3000FFF713FD2A0D01250B9242465346FFF76B
:103E400009FD032DC4E9000139D00B98C1F30A51D3
:103E5000401A05EB45111139814230DA9148C346C9
:103E6000784400EB0510CDF80CA00C90D0E90023AD
:103E700030463946FFF7F1FC02460B4604910690A6
:103E800058460399FFF7E3FC80468A4602460B46F4
:103E900058460399FFF7DBFC049B069AFFF7D7FC13
:103EA00083460C9803913946D0E902233046FFF748
:103EB000D4FC5A46039BFFF7CAFC6D1CBDE707986C
:103EC0000028A2BF099817B0BDE8F08F616881F0A3
:103ED00000416160099817B04042BDE8F08FFFE7EC
:103EE00084461598C1F31301C0F30A50A0F2F530CF
:103EF0004FEA601800F01F06C6F120001390002062
:103F00000690079041F4801E05206D4676B1664A02
:103F100008EB00017A4452F8213002EB8101B340F2
:103F20004A68139922FA01F1194305E05F4908EB49
:103F30000002794451F82210A1FB0E27A1FB0C13BB
:103F40001A449A4234BF0123002303EB070A05EB0E
:103F50008003D3E901B70F448F4234BF0121002110
:103F600093448B4411B1934502D903E0934501D2A8
:103F7000012100E00021C3E901B7514445F82010B8
:103F8000011EA0F10100C1DC0298059F00F1005064
:103F9000800F12900298DDE903568000FFF747FD7D
:103FA000834628460D91FFF753FD6FF01D02FFF782
:103FB00097FECDE90E013046FFF74AFD6FF03D0256
:103FC000FFF78EFE80468A463846FFF741FD6FF0C8
:103FD0005D02FFF785FE0746424653461191FFF703
:103FE00095FBDDE90E23FFF791FB5A460D9BFFF78A
:103FF0008DFB00250E465A4628460D9BFFF727FCF1
:10400000DDE90E23FFF723FC42465346FFF71FFC72
:104010003A46119BFFF71EFCDFF898A0244A53464E
:10402000FFF71BFC07468846234A244B31462846A7
:10403000FFF713FC3A464346FFF768FB07468846FE
:104040004FF0A842534631462846FFF706FC3A4651
:104050004346FFF75BFB159A12F0004F04D0129A0B
:1040600081F0004152421292C4E90001129817B047
:10407000BDE8F08FFB21E93F7CD90240FB21F93FED
:104080007370032E8A19A33B000040543163621AF7
:1040900061B4D03DFB21394183C8C96D305FE43F35
:1040A0000000E03F2C210000A82000008A20000032
:1040B000182D4454FB21F93D3326A611460B113C23
:1040C0002DE9FF4D21F0004807460C46B8F1795F15
:1040D00008DAFFF7CAFC002801BF0020324904B00B
:1040E000BDE8F08D3A46234610461946FFF7B5FB6A
:1040F000054602462D480E460B460621784400F040
:104100005DF82A463346FFF7A8FBDDE90223824625
:104110008B4638462146FFF7A0FB04460F46524621
:104120005B4628463146FFF798FB22463B46FFF7A1
:104130008EFB07468A464FF0FF3228463146FFF78E
:10414000CFFD1B4A90450ADA3A465346FFF77FFBFC
:1041500004B00022BDE8F04D134BFFF77BBB154ABE
:104160004245A8BFA8F500154FF00004B8BF124D96
:1041700022462B46FFF76BFB0646884622462B4617
:1041800000200949FFF763FB04460D463A465346B3
:1041900030464146FFF75BFB04B022462B46BDE8A4
:1041A000F04DFFF757BB00000000F03F581E000025
:1041B0003333D33F0000E93F0000D23F2DE9F04107
:1041C0004F1E00EBC7010446D1E9000115461E460B
:1041D00037F006020DD02A463346FFF73EFB7F1E1E
:1041E00004EBC703D3E90023FFF790FA37F0060288
:1041F000F1D1022F25D0042F13D0062F18BFBDE810
:10420000F0812A463346FFF728FBD4E90A23FFF75B
:104210007DFA2A463346FFF720FBD4E90823FFF74F
:1042200075FA2A463346FFF718FBD4E90623FFF751
:104230006DFA2A463346FFF710FBD4E90423FFF753
:1042400065FA2A463346FFF708FBD4E90223FFF755
:104250005DFA2A463346FFF700FBD4E90023BDE8A8
:10426000F041FFF753BA00002DE9FF4D054621F05C
:10427000004084B00C46B0F1795F0BDA2846FFF7B6
:1042800046FD042808BF00F071F8284608B0214612
:10429000BDE8F08D2A460B461046FFF7DEFA0646CB
:1042A0000F462A462346FFF7D8FA804626488A4614
:1042B00032463B4605217844FFF780FF834610983D
:1042C000029160B3214A224B40465146FFF7C5FA9E
:1042D000CDE900015A4640465146029BFFF7BDFA20
:1042E00082468846DDE906014FF0FF32FFF7F8FC11
:1042F00052464346FFF7ABFA32463B46FFF7ADFA6C
:10430000DDE90623FFF7A3FADDE90023FFF79FFAB3
:1043100008B02A462346BDE8F04DFFF79BBA0B468E
:104320005A4630463946FFF798FA084A084BFFF7D5
:10433000EDF942465346FFF790FA08B02A46234665
:10434000BDE8F04DFFF7E2B99E1D000049555555F7
:104350005555C5BF0122FFF7C3BCFFF7D7B90022EF
:10436000134610461146FFF7EABA0000024A002041
:104370001107FFF7B5BC000001FDFFFF02E008C810
:10438000121F08C1002AFAD170477047002001E0CF
:1043900001C1121F002AFBD17047000001490860CB
:1043A000704700005C0000202DE9F84F04460D46E0
:1043B00021F0004000917349814211DC724988422A
:1043C00001DC06D12CB120462946BDE8F84FFFF7A5
:1043D000C1BF6E48002DCCBF6D496E49BDE8F88F56
:1043E0006D49814211DD6D498142D8BF4FF0FF36E2
:1043F0006DDD20462946FFF78AFC042808BFFFF739
:10440000B5FF20462946BDE8F88F6549654F25F080
:104410000045814233DD6449814219DD0026324680
:104420004FF0804320462946FFF770F980468A46C0
:10443000012220462946FFF753FC00223B46FFF7A6
:1044400006FA42465346FFF77AFA04460D463EE026
:1044500001260022BA463B4620462946FFF756F978
:1044600080460F460022534620462946FFF7EFF9C3
:1044700042463B46FFF763FA04460D4627E04B49A8
:1044800081421BDDDFF828A1022600225346204688
:104490002946FFF7E2F900223B46FFF737F980464D
:1044A0000F460022534620462946FFF7D0F94246E0
:1044B0003B46FFF744FA04460D4608E00326224631
:1044C0002B4600203B49FFF73AFA04460D462246A8
:1044D0002B4610461946FFF7C0F98B468246024626
:1044E0000B46FFF7BAF907460246334888460B46A3
:1044F00006217844FFF762FE52465B46FFF7ADF9AE
:1045000082462E488B463A46434605217844FFF7BB
:1045100055FE3A464346FFF7A0F902460B46002EE9
:10452000504659460CDAFFF7F1F822462B46FFF7C2
:1045300094F901B022462B46BDE8F04FFFF78AB947
:10454000FFF7E4F822462B46FFF787F91C4A7A4426
:1045500002EBC603D3E90023FFF779F922462B4685
:10456000FFF775F9174A7A4402EBC603D3E9002333
:10457000FFF770F9009A002AB8BF81F00041BDE84A
:10458000F88F0000000010440000F07F182D445404
:10459000FB21F93FFB21F9BF0000DC3F0000203E7A
:1045A0000000F33F0000F03F0000E63F00800340C2
:1045B0000000F83F0000F0BF321A0000F0190000C0
:1045C0008E190000561900002DE9F04D9446CCF1EB
:1045D000000423F000464CEA0404524F46EAD47427
:1045E0009A46884621F00042BC4206D8454240EA3D
:1045F000050442EAD474BC4204D9BDE8F04D6246D9
:10460000FFF7ABBEAAF14055A5F17F6555EA0C0452
:104610000BD0022404EAAA74434DDFF810E144EA07
:10462000D87452EA000B04D00CE0BDE8F04DFFF75F
:10463000BBBE002C14BF012CBDE8F08D022C30D085
:10464000032C32D056EA0C0B0AD0BE4220D1BA421B
:1046500009D126F0804622F080423346114617E009
:1046600000291ADB25E0DFF8C8B0FB44002C04BFAA
:10467000DBE90001BDE8F08D012C02BFDBE90001A0
:1046800081F00041BDE8F08D022C0AD0032C0CD043
:10469000BA4212D1B8F1000F0BDA23482549BDE820
:1046A000F08D28462449BDE8F08D28467146BDE8C6
:1046B000F08D1D482149BDE8F08D921B12153C2A52
:1046C000C4BF19481D490EDCBAF1000FBEBF12F17C
:1046D0003C0F0020014606DB6246FFF730F921F06F
:1046E0000041FFF761FE002C08BFBDE8F08D012CF2
:1046F00004BF81F00041BDE8F08D114A114B022C3E
:1047000007D0FFF7A4F82A46BDE8F04D0A4BFFF7A3
:104710009EB8FFF79CF82A46BDE8F04D064BFFF720
:1047200099B800000000F07F182D4454FB2109C007
:104730001A190000FB21F9BFFB210940FB21F93FB9
:10474000075C143326A6A13C00B5244B21F000429F
:1047500087B09A42DCBF0022134629DD204B9A42E3
:1047600008D140B94FF00100FFF718FEFFF7F7FD41
:1047700007B000BD03DBFFF7EDFD07B000BD02AAE7
:10478000FFF7DAFA10F0030104BF0DF1080C9CE802
:104790000F000DD0012001290ED0022914D00DF1F7
:1047A000080C00909CE80F00FFF75EFD07B000BD0D
:1047B000FFF786FC07B000BD0DF1080C00909CE8E7
:1047C0000F00FFF751FD05E00DF1080C9CE80F000C
:1047D000FFF776FC07B081F0004100BDFB21E93F07
:1047E0000000F07F00B5254B21F0004287B09A42CF
:1047F00003DC0022134600922BE0214B9A4208D1A1
:1048000040B94FF00100FFF7C9FDFFF7A8FD07B061
:1048100000BD03DBFFF79EFD07B000BD02AAFFF756
:104820008BFA10F003014FF001000DD0012914D0D4
:1048300002291AD00DF1080C9CE80F00FFF740FC8C
:1048400007B081F0004100BD0DF1080C00909CE81C
:104850000F00FFF709FD07B000BD0DF1080C9CE843
:104860000F00FFF72DFC07B000BD0DF1080C009004
:104870009CE80F00FFF7F8FCE2E70000FB21E93FAE
:104880000000F07F00000000003E5B4F5B3E3E6B8F
:104890004F6B3E1C3E7C3E1C183C7E3C181C577DDA
:1048A000571C1C5E7F5E1C00183C1800FFE7C3E726
:1048B000FF0018241800FFE7DBE7FF30483A060E38
:1048C0002629792926407F050507407F05253F5A7F
:1048D0003CE73C5A7F3E1C1C08081C1C3E7F1422EF
:1048E0007F22145F5F005F5F06097F017F0066899A
:1048F000956A606060606094A2FFA29408047E04E0
:104900000810207E201008082A1C08081C2A080805
:104910001E101010100C1E0C1E0C30383E383006C5
:104920000E3E0E06000000000000005F00000007C1
:10493000000700147F147F14242A7F2A12231308EF
:10494000646236495620500008070300001C2241CB
:10495000000041221C002A1C7F1C2A08083E08086F
:10496000008070300008080808080000606000201F
:10497000100804023E5149453E00427F4000724902
:104980004949462141494D331814127F10274545A6
:1049900045393C4A494931412111090736494949BC
:1049A00036464949291E000014000000403400002A
:1049B0000008142241141414141400412214080293
:1049C000015909063E415D594E7C1211127C7F4906
:1049D0004949363E414141227F4141413E7F49495B
:1049E00049417F090909013E414151737F08080887
:1049F0007F00417F41002040413F017F0814224158
:104A00007F404040407F021C027F7F0408107F3EB1
:104A10004141413E7F090909063E4151215E7F091E
:104A2000192946264949493203017F01033F404085
:104A3000403F1F2040201F3F4038403F6314081470
:104A40006303047804036159494D43007F414141A8
:104A50000204081020004141417F04020102044089
:104A600040404040000307080020545478407F280D
:104A70004444383844444428384444287F38545403
:104A8000541800087E090218A4A49C787F08040426
:104A90007800447D40002040403D007F10284400C5
:104AA00000417F40007C047804787C080404783856
:104AB00044444438FC1824241818242418FC7C0886
:104AC000040408485454542404043F44243C404003
:104AD000207C1C2040201C3C4030403C44281028B6
:104AE000444C9090907C4464544C440008364100FF
:104AF0000000770000004136080002010204023C79
:104B00002623263C1EA1A161123A4040207A385447
:104B100054555921555579412154547841215554C2
:104B2000784020545579400C1E5272123955555513
:104B300059395454545939555454580000457C41FE
:104B40000002457D420001457C40F0292429F0F017
:104B5000282528F07C545545002054547C547C0A68
:104B6000097F4932494949323248484832324A4835
:104B700048303A4141217A3A42402078009DA0A035
:104B80007D39444444393D4040403D3C24FF242489
:104B9000487E4943662B2FFC2F2BFF0929F620C0A6
:104BA000887E090320545479410000447D413048F7
:104BB000484A32384040227A007A0A0A727D0D193A
:104BC000317D2629292F28262929292630484D409C
:104BD00020380808080808080808382F10C8ACBA98
:104BE0002F102834FA00007B000008142A14222217
:104BF000142A14089500220095AA005500AAAA5567
:104C0000AA55AA000000FF00101010FF0014141491
:104C1000FF001010FF00FF1010F010F0141414FC2F
:104C2000001414F700FF0000FF00FF1414F404FC4C
:104C3000141417101F10101F101F1414141F00102D
:104C40001010F0000000001F101010101F101010A6
:104C500010F010000000FF101010101010101010B5
:104C6000FF10000000FF140000FF00FF00001F10F5
:104C7000170000FC04F414141710171414F404F4AF
:104C80000000FF00F714141414141414F700F714A0
:104C90001414171410101F101F141414F4141010EF
:104CA000F010F000001F101F0000001F1400000093
:104CB000FC140000F010F01010FF10FF141414FF8B
:104CC000141010101F00000000F010FFFFFFFFFF86
:104CD000F0F0F0F0F0FFFFFF0000000000FFFF0F1A
:104CE0000F0F0F0F38444438447C2A2A3E147E02AA
:104CF000020606027E027E0263554941633844443F
:104D00003C04407E201E2006027E020299A5E7A5F3
:104D1000991C2A492A1C4C7201724C304A4D4D3064
:104D20003048784830BC625A463D3E494949007E89
:104D30000101017E2A2A2A2A2A44445F4444405120
:104D40004A444040444A51400000FF0103E080FFD4
:104D5000000008086B6B083612362436060F090F60
:104D600006000018180000001010003040FF01017C
:104D7000001F01011E00191D1712003C3C3C3C00A5
:104D8000000000000000000000000000002F0000F4
:104D900000000700070000147F147F1400242A7FFE
:104DA0002A1200626408132300364955225000007D
:104DB0000503000000001C224100000041221C00ED
:104DC0000014083E08140008083E0808000000A06F
:104DD000600000080808080800006060000000206B
:104DE00010080402003E5149453E0000427F400049
:104DF000004261514946002141454B3100181412CF
:104E00007F10002745454539003C4A49493000019B
:104E10007109050300364949493600064949291EEA
:104E2000000036360000000056360000000814224C
:104E3000410000141414141400004122140800024C
:104E40000151090600324959513E007C1211127C71
:104E5000007F49494936003E41414122007F41419E
:104E6000221C007F49494941007F09090901003E90
:104E70004149497A007F0808087F0000417F4100CE
:104E8000002040413F01007F08142241007F404044
:104E90004040007F020C027F007F0408107F003E2C
:104EA0004141413E007F09090906003E4151215E12
:104EB000007F091929460046494949310001017F0F
:104EC0000101003F4040403F001F2040201F003FA5
:104ED0004038403F00631408146300070870080757
:104EE00000615149454300007F41410000552A556A
:104EF0002A55000041417F000004020102040040E5
:104F00004040404000000102040000205454547806
:104F1000007F484444380038444444200038444426
:104F2000487F00385454541800087E0901020018C4
:104F3000A4A4A47C007F080404780000447D400001
:104F4000004080847D00007F102844000000417FE5
:104F50004000007C04180478007C080404780038C1
:104F60004444443800FC242424180018242418FC49
:104F7000007C0804040800485454542000043F44B2
:104F80004020003C4040207C001C2040201C003C75
:104F90004030403C004428102844001CA0A0A07CC5
:104FA000004464544C4414141414141400000000FD
:104FB000000000000000000000000000000000F8F9
:104FC00000000000000000333000000000100C065C
:104FD000100C0600000000000000000040C07840F7
:104FE000C0784000043F04043F040400007088FCC3
:104FF00008300000001820FF211E0000F008F0001B
:10500000E018000000211C031E211E0000F008888B
:10501000700000001E2123241927211010160E00F5
:10502000000000000000000000000000000000E0A0
:1050300018040200000000071820400000020418B5
:10504000E00000000040201807000000404080F011
:10505000804040000202010F01020200000000F047
:10506000000000000101011F01010100000000001B
:105070000000000080B07000000000000000000090
:105080000000000000010101010101010000000019
:1050900000000000003030000000000000000000B0
:1050A00080601804006018060100000000E010088D
:1050B0000810E000000F102020100F00001010F862
:1050C000000000000020203F2020000000700808A1
:1050D0000888700000302824222130000030088821
:1050E000884830000018202020110E000000C02049
:1050F00010F8000000070424243F240000F808886A
:10510000880808000019212020110E0000E01088F6
:1051100088180000000F112020110E000038080828
:10512000C83808000000003F000000000070880838
:1051300008887000001C222121221C0000E01008B9
:105140000810E0000000312222110F00000000C012
:10515000C0000000000000303000000000000080AF
:10516000000000000000806000000000000080409F
:1051700020100800000102040810200040404040B8
:10518000404040000404040404040400000810200B
:105190004080000000201008040201000070480850
:1051A0000808F0000000003036010000C030C828B8
:1051B000E810E0000718272423140B000000C03873
:1051C000E0000000203C23020227382008F88888ED
:1051D00088700000203F202020110E00C0300808F9
:1051E00008083800071820202010080008F80808D0
:1051F0000810E000203F202020100F0008F88888C9
:10520000E8081000203F20202320180008F8888894
:10521000E8081000203F200003000000C03008080C
:105220000838000007182020221E020008F8080095
:105230000008F808203F210101213F20000808F85C
:10524000080800000020203F20200000000008087F
:10525000F8080800C08080807F00000008F888C03F
:1052600028180800203F20012638200008F80800F0
:1052700000000000203F20202020300008F8F80027
:10528000F8F80800203F003F003F200008F830C039
:105290000008F808203F200007183F00E010080829
:1052A0000810E0000F10202020100F0008F8080858
:1052B0000808F000203F210101010000E01008086B
:1052C0000810E0000F18242438504F0008F8888890
:1052D00088887000203F2000030C30200070880870
:1052E000080838000038202121221C00180808F87E
:1052F000080818000000203F2000000008F80800FF
:105300000008F808001F202020201F0008788800CF
:1053100000C83808000007380E010000F80800F83F
:105320000008F800033C0700073C030008186880E9
:105330008068180820302C03032C30200838C8005F
:10534000C83808000000203F2000000010080808AE
:10535000C83808002038262120201800000000FE50
:10536000020202000000007F40404000000C30C0FC
:1053700000000000000000010638C0000002020228
:10538000FE000000004040407F00000000000402DA
:105390000202040000000000000000000000000005
:1053A00000000000808080808080808000020204F5
:1053B00000000000000000000000000000008080ED
:1053C000808000000019242222223F2008F800805B
:1053D00080000000003F112020110E00000000801E
:1053E00080800000000E11202020110000000080AD
:1053F0008088F800000E112020103F2000008080DF
:1054000080800000001F222222221300008080F0F2
:10541000888888180020203F20200000000080801D
:1054200080808000006B94949493600008F8008062
:1054300080800000203F210000203F2000809898BD
:10544000000000000020203F20200000000000801D
:105450009898000000C08080807F000008F800005D
:1054600080808000203F24022D302000000808F8B2
:10547000000000000020203F20200000808080806D
:1054800080808000203F20003F20003F80800080FF
:1054900080800000203F210000203F20000080800D
:1054A00080800000001F202020201F0080800080BE
:1054B0008000000080FFA12020110E00000000806D
:1054C00080808000000E112020A0FF80808080005E
:1054D0008080800020203F2120000100000080808B
:1054E000808080000033242424241900008080E080
:1054F000808000000000001F20200000808000004D
:1055000000808000001F202020103F20808080002D
:105510000080808000010E3008060100808000803D
:10552000008080800F300C030C300F000080800062
:10553000808080000020312E0E312000808080008D
:105540000080808080818E7018060100008080803D
:10555000808080000021302C2221300000000000DB
:10556000807C020200000000003F4040000000007C
:10557000FF00000000000000FF0000000002027CAD
:10558000800000000040403F0000000000060101D4
:1055900002020404000000000000000000000037C8
:1055A000CD821241411282CD37000000000C3249F9
:1055B000848D792525798D8449320C000000000006
:1055C00000000F39E163120E84840406060484840B
:1055D0000E1263E1390F000000000000000000001F
:1055E000000000808F70C0819B3360585860331B6F
:1055F00081C070DB80000000000000000000F09817
:105600000C06C3E1207E3FA3E785257E7E2585C766
:10561000A33F7E30E1C3060C98F0000000000001BB
:1056200001073F40BCE2A2DC603F202020203F6019
:10563000DCA6E2BE48300F010100000000000000BF
:1056400000000000000000003EFFC3030303060645
:105650000E8CDCF8787030301818181818181818D4
:1056600030307078F8DC8C0E0606030303C3FF3E6F
:10567000000000000000000000000000000000002A
:1056800000000000000000000000030F9CF8781EDE
:1056900007030180C0C0C0800000000000000000BF
:1056A00080C0C0C0800103070E7CF89C0F0300007F
:1056B00000000000000000000000000000000000EA
:1056C0000000000000000000000000007FFF8000DC
:1056D00000000007CFCC0D07030020E0E02000030E
:1056E000070DCCCF070000000080DF1F0000000086
:1056F00000000000000000000000000000000000AA
:105700000000000000000000000080C0E06337BE21
:10571000F8F0E0C0818307061E3E776363773E1E84
:1057200006078381C0E0F0F8BC3F63E0C080000062
:105730000000000000000000000000000000000069
:10574000000080C0E070381C0E070301000000FF5D
:10575000FF03070C1D1B3333666666F6F666666646
:1057600033331B190D0603FFFF0000000103070E72
:105770001C3870E0C0800000000000000000000045
:105780007EFF830100000000C0F078FCCE06063FDB
:105790003F0606ECFC78F0C0001C3E37373E1C008C
:1057A00000E0F078FCCE06077F3E0606EC7C78E051
:1057B000800000000183FF7E000000000000000068
:1057C00000000103030303FFFF000080F0780C0CCE
:1057D0000C1CF8F0000083FF7C00000000000000BB
:1057E000FFFF0000C0F0380C0C0C1CF8E00000C7F4
:1057F000FF17030303010100000000000000000088
:105800000000000000000000030F387067CFDCD8F4
:10581000D8DCEF63381C0F070606060606060604EA
:10582000070F1E387167CEDCD8D8CC6F63381E0FD7
:105830000300000000000000000000000000000065
:105840000000000000000000000000000000000058
:105850000000000000000000000000000000000048
:105860000000000000000000000000000000000038
:1058700000000000000000000080808080808080A8
:105880000000000000000000000000000000000018
:105890000000000000000000000000000000000008
:1058A000000000000000E0E0C00000000000000078
:1058B00000000000000000000000000000000000E8
:1058C00000000000000080C0C0C0000000E0F0FC4C
:1058D000FEFFFFFFC0C0C0C0C0C0C0C0C00000000D
:1058E00000000000000000000000000000000000B8
:1058F0000080E0F8FCFEFEE74747470707074747F9
:1059000047E7FEFEFCF8E080000000000000000019
:1059100000000000000000000000000060E0F0F067
:10592000F0F0F0F8FCFFFFFFFFFFFCF8F0F0F0F004
:10593000F0E0600000000000000000000000000037
:10594000000000000000FFFFFFFF000000FFFFFF5E
:10595000FFFFFFFFFFFFFFFFFFFFFF1F0300000030
:105960000000000000000000000000000000000037
:10597000003FFFFFFFFF8180C0FCFE000000FEFC37
:10598000C08081FFFFFFFF3F00000000000000001B
:105990000000000000000000000000000000010303
:1059A00007FFFFFFFFFFFFFFFFFFFFFFFFFF0703F3
:1059B00001000000000000000000000000000000E6
:1059C000000000000000070F0F0F0000000F0F0F76
:1059D0000F0F0F0F0F0F0F0F0F0700000000000039
:1059E00000000000000000000000000000000000B7
:1059F00000000003070F0F1F1F3F3F3C3C3C3F3F91
:105A00001F1F0F0F07030000000000000000000030
:105A10000000000000000000000000000000000086
:105A20000F0F0F0707030301030303070F0F0F00F7
:105A30000000000000000000000000000000000066
:105A40000000000000000000000000000000000056
:105A50000000000000000000000000000000000046
:105A60000000000000000000000000000000000036
:105A70000000000000000000000000000000000026
:105A80000000000000000000000000000000000016
:105A90000000000000000000000000000000000006
:105AA00000000000000000000000000000000000F6
:105AB00000000000000000000000000000000000E6
:105AC00000000000000000000000000000000000D6
:105AD00000000000000000000000000000000000C6
